:100000000C9443010C9462010C9462010C94620103
:100010000C9462010C9462010C9462010C946201D4
:100020000C9462010C9462010C9462010C946201C4
:100030000C9462010C9462010C9462010C946201B4
:100040000C9462010C9427040C9462010C946201DC
:100050000C9462010C9462010C9462010C94620194
:100060000C9462010C9462010C9462010C94620184
:100070000C9462010C9462010C9462010C94620174
:100080000C9462010C9462010C9462010C94620164
:100090000C9462010C946201EA011102180233020D
:1000A000420265027C029302B602000000000000DA
:1000B000005F00000003000300143E143E14242AD5
:1000C0007F2A1243330866613649552250000503E2
:1000D0000000001C2241000041221C0014083E08C0
:1000E0001408083E080800503000000808080808F6
:1000F000006060000020100804023E5149453E00A7
:1001000004027F0042615149462241494936181490
:10011000127F1027454545393E4949493201017151
:1001200009073649494936264949493E00363600CD
:100130000000563600000814224100141414141450
:10014000004122140802015109063E4159555E7EC4
:100150000909097E7F494949363E414141227F4193
:1001600041413E7F494949417F090909013E4141D9
:10017000493A7F0808087F00417F410030404040F5
:100180003F7F081422417F404040407F020C027FA5
:100190007F0204087F3E4141413E7F090909061E56
:1001A0002121215E7F090909762649494932010149
:1001B0007F01013F4040403F1F2040201F7F201013
:1001C000207F41221C2241070870080761514945E0
:1001D00043007F41000002040810200000417F001E
:1001E000040201020440404040400001020400209B
:1001F000545454787F444444383844444444384444
:1002000044447F385454541804047E05050854545B
:10021000543C7F0804047800447D40002040443D65
:10022000007F1028440000417F40007C047804785F
:100230007C0804047838444444387C1414140808B6
:100240001414147C007C08040448545454200404FE
:100250003F44443C4040207C1C2040201C3C40301B
:10026000403C44281028440C5050503C4464544CAA
:1002700044000836414100007F000041413608003B
:1002800002010204020011241FBECFEFD0E2DEBF44
:10029000CDBF18E0A0E0B1E0EEE8F7E100E00BBF71
:1002A00002C007900D92A83DB107D9F729E0A8ED4B
:1002B000B8E001C01D92AF3BB207E1F70E941309FD
:1002C0000C94C50B0C94000040E050E060E070E03E
:1002D00085E493E00E94D0088FED91E00E94BD0874
:1002E00085E192E00E94BD0889E492E00E94BD0889
:1002F0008DE792E00E94BD0881EB92E00E94BD086C
:1003000085EE92E00E94BD0889E193E00C94BD085F
:100310002091F0083091F108EAE7F9E0AF014A577F
:1003200059404217530730F491918913F7CF81E078
:1003300090E0089580E090E00895ECE0F9E04091CD
:10034000F0085091F10820E030E080E090E02417C0
:10035000350749F0619171916130710509F4019699
:100360002F5F3F4FF4CF08958091F0089091F108EE
:1003700020910001ACE0B9E0EAE7F9E061E070E06B
:10038000AF014A5759404817590740F43191231398
:1003900003C011967C936E931296F2CF8091D80889
:1003A0009091D908AC014F5F5F4F5093D9084093AB
:1003B000D808FC01EE50F74F20830895E091DE0845
:1003C000F091DF08E930F10508F0FCC0E45BFF4F75
:1003D0000C94AD0982E493E00E94BD0887E493E0A9
:1003E0000E94BD0887E493E00E94BD0887E493E083
:1003F0000E94BD0887E493E00E94BD0887E493E073
:100400000E94BD0887E493E00E94BD0887E493E062
:100410000E94BD0887E493E00E94BD0887E493E052
:10042000CBC08EE893E00E94BD088AEA93E006C044
:100430008BEC93E00E94BD088EEE93E00E94BD0815
:100440008AEA93E00E94BD088AEA93E00E94BD0810
:100450008AEA93E00E94BD088AEA93E00E94BD0800
:100460008AEA93E029C08BEC93E00E94BD088EEEEF
:1004700093E00E94BD088FE094E00E94BD0880E3F5
:1004800094E0E4CF8BEC93E00E94BD088EEE93E005
:100490000E94BD088FE094E00E94BD0880E394E0D4
:1004A0000E94BD088EEE93E00E94BD088EEE93E0A0
:1004B0000E94BD088EEE93E00E94BD088AEA93E098
:1004C0000E94BD088AEA93E073C08BEC93E00E941F
:1004D000BD088EEE93E00E94BD088FE094E00E947C
:1004E000BD0880E394E00E94BD088EEE93E00E9478
:1004F000BD088EEE93E02DC08BEC93E00E94BD080A
:100500008EEE93E00E94BD088FE094E00E94BD084B
:1005100080E394E00E94BD088EEE93E00E94BD0847
:1005200083E994E016C08BEC93E00E94BD088EEE48
:1005300093E00E94BD088FE094E00E94BD0880E334
:1005400094E00E94BD088EEE93E00E94BD0884EB0B
:1005500094E00E94BD088EEE93E00E94BD0881E504
:1005600094E00E94BD0882E794E022C08BEC93E007
:100570000E94BD088EEE93E00E94BD088FE094E0DB
:100580000E94BD0880E394E00E94BD088EEE93E0D7
:100590000E94BD0884EB94E00E94BD088EEE93E0BB
:1005A0000E94BD0881E594E00E94BD0885ED94E0BD
:1005B0000E94BD088AEA93E00E94BD0887E693E0A6
:1005C0000C94BD080895AF92BF92CF92DF92EF9244
:1005D000FF920F931F93CF93DF930E9413070E9404
:1005E000DE0186EF94E00E94BD080CE019E0CAE746
:1005F000D9E030EEE32E37E0F32ECC24CA94DC2C85
:100600002091F0083091F108CE018A579940821765
:100610009307E0F4F801819191918F01892B29F4DE
:1006200089E095E00E94BD080BC0F092BC09E09201
:10063000BB0988810E94E907D092BC09C092BB091E
:1006400087E095E00E94BD082196DACF8BE095E027
:100650000E94BD08809100010E94E90789E295E0AF
:100660000E94BD088BE295E00E94BD08C2EFD8E071
:10067000E12C88EFF82E90EEC92E97E0D92EAA240F
:10068000AA94BA2C2091D8083091D908CE01825F63
:10069000984082179307DCF41991812F0E948801FA
:1006A000892B29F0D092BC09C092BB0904C0F092FA
:1006B000BC09E092BB09812F0E94E907B092BC09F6
:1006C000A092BB0986E095E00E94BD08DBCFDF91D8
:1006D000CF911F910F91FF90EF90DF90CF90BF903F
:1006E000AF900895AF92BF92CF92DF92EF92FF92B8
:1006F0000F931F93CF93DF93CDB7DEB7E6970FB677
:10070000F894DEBF0FBECDBF1092E1081092E00852
:100710001092DF081092DE0881E090E09093DB08F1
:100720008093DA081092E3081092E20881E4809343
:1007300000010E94440B61E670E00E949909FC01EF
:10074000EE0FFF1FEF5FFE4F60817181CE010196BA
:100750007C010E945B0BF70101900020E9F73197C3
:100760008F010E191F091093F1080093F0081092E1
:10077000DD081092DC08C090DC08D090DD08C016BF
:10078000D106A0F45701AC0CBD1CF5018081082EE8
:10079000000C990B0E94530BF5018083FFEFCF1AD9
:1007A000DF0AD092DD08C092DC08E5CFB7018AE706
:1007B00099E00E945B0BEAE7F9E001900020E9F77D
:1007C0003197EA57F940F093F108E093F00820E000
:1007D00030E080E090E08E179F0748F4D901A45FD5
:1007E000B64F1D921C9201962E5F3F4FF4CF209181
:1007F000D8083091D90880E090E02817390734F004
:10080000FC01EE50F74F10820196F7CF9093DD0870
:100810008093DC081092D9081092D808E6960FB69B
:10082000F894DEBF0FBECDBFDF91CF911F910F9126
:10083000FF90EF90DF90CF90BF90AF9008959B0115
:100840000E94990997FF02C0820F931F08951F927B
:100850000F920FB60F9211240BB60F922F933F9366
:100860004F935F936F937F938F939F93AF93BF93B8
:10087000EF93FF930E94DA04892B09F444C080911E
:10088000E2089091E308892BE1F00E94B4010E94F4
:100890009D012091E0083091E108281739072CF4D8
:1008A0009093E1088093E00809C08091DE08909160
:1008B000DF0801969093DF088093DE080E94E30230
:1008C00006C081E090E09093E3088093E2082091D5
:1008D000E0083091E1088091F0089091F108281724
:1008E000390768F48091DE089091DF0808973CF49E
:1008F00081E090E09093DB088093DA0804C01092C6
:10090000DB081092DA080E940605892BA1F080917D
:100910000001082E000C990B825491096AE170E0E5
:100920000E94990997FD4A968F5B809300010E946F
:1009300013070E94E3020E943205892B91F08091F7
:100940000001082E000C990B805491096AE170E0B7
:100950000E9499098F5B809300010E9413070E94F7
:10096000E302FF91EF91BF91AF919F918F917F91A2
:100970006F915F914F913F912F910F900BBE0F9010
:100980000FBE0F901F9018956F98779A87B1837C50
:1009900087B988B18C6388B96F98779A87B1837C5F
:1009A00087B988B18C6388B9EAE6F0E08081856810
:1009B00080830895679917C08091EE089091EF08A1
:1009C000892B89F48091E4089091E508892B59F4EA
:1009D00081E090E09093EF088093EE089093E50813
:1009E0008093E4080895679B0EC08091EE08909173
:1009F000EF08009751F01092EF081092EE08109255
:100A0000E5081092E40880E090E00895359917C059
:100A10008091EC089091ED08892B89F48091E4088D
:100A20009091E508892B59F481E090E09093ED08CE
:100A30008093EC089093E5088093E4080895359B33
:100A40000EC08091EC089091ED08009751F0109243
:100A5000ED081092EC081092E5081092E40880E08E
:100A600090E00895339917C08091EA089091EB08BF
:100A7000892B89F48091E4089091E508892B59F439
:100A800081E090E09093EB088093EA089093E5086A
:100A90008093E4080895339B0EC08091EA089091FA
:100AA000EB08009751F01092EB081092EA081092B0
:100AB000E5081092E40880E090E0089593E89093B0
:100AC000B00091E09093B1008093B30008959093AB
:100AD000B6098093B50926E330E0209300400097E3
:100AE00079F480EF90E09093B2098093B10980E4AB
:100AF00091E09093B4098093B30988E490E034C006
:100B00008130910579F480E491E09093B20980936B
:100B1000B10980EF90E09093B4098093B30988EE17
:100B200090E022C08230910579F480EF90E09093BC
:100B3000B2098093B10980E491E09093B409809365
:100B4000B30988E890E010C0039781F480E491E055
:100B50009093B2098093B10980EF90E09093B4092B
:100B60008093B30988E290E0809300418AE290E0AC
:100B70008093004020E030E030930041209300411A
:100B80008091B1099091B2090197909300418093AF
:100B900000418BE290E0809300403093004120932D
:100BA00000418091B3099091B4090197909300415D
:100BB000809300410895CF93873748F4883048F0F8
:100BC0008D3350F48F3150F4803120F009C086E726
:100BD00003C088E0C3E005C0C0E003C0C1E001C0BD
:100BE000C2E021EB30E020930040C0930041682F29
:100BF00070E080E090E00E946D0A9B01AC0160E033
:100C000070E080EF94E40E94CA090E943C0A70E000
:100C100002C075956795CA95E2F760930041CF9140
:100C200008950F931F93CF93DF93CDB7DEB7289727
:100C30000FB6F894DEBF0FBECDBF29833A834B8336
:100C40005C836D837E838F83988769817A812B8112
:100C50003C814D815E818F819885EAE2F0E0E093EE
:100C60000040709300416093004130930041209315
:100C70000041EBE2F0E0E0930040509300414093EC
:100C800000419093004180930041ECE2F0E0E0935A
:100C900000402F5F3F4F261B370B0196841B950B9F
:100CA0002817390790F4482F4770429FB001439F9F
:100CB000700D112453E0969587955A95E1F7829F20
:100CC000A001839F500D112411C0422F4770489FEF
:100CD000B001499F700D112443E0369527954A9540
:100CE000E1F7289FA001299F500D1124862F8770BE
:100CF000815028F01093004100930041F9CFCB01BF
:100D000023E0969587952A95E1F7840F951F019723
:100D100008F11093004100930041109300410093AB
:100D20000041109300410093004110930041009353
:100D30000041109300410093004110930041009343
:100D40000041109300410093004110930041009333
:100D50000041DDCF28960FB6F894DEBF0FBECDBFA1
:100D6000DF91CF911F910F910895EF92FF920F9312
:100D70001F93CF93DF93CDB7DEB728970FB6F894C4
:100D8000DEBF0FBECDBF29833A834B835C836D8367
:100D90007E838F83988789819A81EB80FC806D8127
:100DA0007E81AF81B8852AE230E0209300409093A5
:100DB000004180930041F0920041E09200412BE21B
:100DC00030E0209300407093004160930041B09365
:100DD0000041A09300412CE230E020930040E8164F
:100DE000F906A0F0A8019B018A01A217B30760F0E1
:100DF0004E5F5F4FF8010081118110930041009315
:100E000000412F5F3F4FF0CF0196E9CF28960FB6F4
:100E1000F894DEBF0FBECDBFDF91CF911F910F9130
:100E2000FF90EF9008950F931F93CF93DF93CDB76B
:100E3000DEB728970FB6F894DEBF0FBECDBFE1EB4B
:100E4000F9E017821682118610861A821982808133
:100E500091810197482F9C838B831E821D82828102
:100E60009381019798878F830485158520E03A81C7
:100E70005C8160E07E8198850E94110628960FB6FD
:100E8000F894DEBF0FBECDBFDF91CF911F910F91C0
:100E9000089586E08093750080E8809374003F9AFF
:100EA000249A8FEC97E00197F1F700C00000479873
:100EB0008FE39CE90197F1F700C00000479A9FEF8C
:100EC0002DEE82E0915020408040E1F700C000000C
:100ED00088E290E08093004081E190E080930040C0
:100EE0009FEF26E781E0915020408040E1F700C06D
:100EF000000021E030E08BEC90E0809300402093F4
:100F0000004180EC90E08093004088E096E290936E
:100F100000418093004120E130E081EC90E080933B
:100F200000402093004185EC90E0809300408EE3E8
:100F300095E3909300418093004125EB30E087ECEE
:100F400090E0809300402093004121E030E086EF64
:100F500090E0809300402093004180E090E09093E7
:100F600000418093004125E530E08AE390E08093E2
:100F700000402093004181E090E00E9467050E94BC
:100F80001307E1EBF9E017821682118610861586A9
:100F900014868FEF9FEF9387828789E290E080939A
:100FA00000409FE728E381E0915020408040E1F736
:100FB00000C0000020E030E085E390E08093004036
:100FC00020930041EAE6F0E08081806280832C9AE1
:100FD00008959F92AF92BF92CF92DF92EF92FF92CD
:100FE0000F931F93CF93DF936091B7097091B80966
:100FF0002091B9093091BA098A30F9F41092B809F0
:101000001092B709285F3F4F3093BA092093B9096E
:101010008091B3099091B4092817390708F4A1C049
:10102000DF91CF911F910F91FF90EF90DF90CF90C4
:10103000BF90AF909F900C94130790EE980F9F3540
:1010400008F08FC0A901495F5F4F082E000C990B73
:101050008097E5E0E89FE001E99FD00D11248BE245
:1010600090E08093004030930041209300415093E2
:10107000004140930041CB01DB0114960AE210E0ED
:10108000ECE2EE2EF12CA817B90780F10093004096
:1010900090930041809300419093004180930041E0
:1010A000E0920040FC01E61BF70BEC0FFD1FE6553C
:1010B000FF4F94906901F1E04C155D05A8F0BF2E3B
:1010C000B92029F0A090BB09B090BC0904C0A09041
:1010D000BD09B090BE09B0920041A0920041EFEF6F
:1010E000CE1ADE0AFF0FE8CF0196CDCF6AE270E09C
:1010F00060930040909300418093004190930041A1
:10110000809300418CE290E08093004042175307A7
:1011100058F08091BD099091BE0990930041809351
:1011200000412F5F3F4FF2CF8091B7099091B809EE
:1011300006969093B8098093B7092091B109309130
:10114000B2098217930768F01092B8091092B70994
:101150008091B9099091BA0908969093BA09809341
:10116000B909DF91CF911F910F91FF90EF90DF9020
:10117000CF90BF90AF909F9008950F931F93CF9300
:101180008C01C0E0F801EC0FF11D8081882321F073
:101190000E94E907CF5FF6CFCF911F910F9108957D
:1011A0000F931F93CF938C017093B8096093B70985
:1011B0005093BA094093B909C0E0F801EC0FF11D52
:1011C0008081882321F00E94E907CF5FF6CFCF917D
:1011D0001F910F910895EF92FF920F931F93CF935A
:1011E000DF93C0E0D0E090E8E92EF12C082F10E06A
:1011F000C7010C2E02C0959587950A94E2F78023CB
:101200009123892B11F081E301C08EE20E94E9074E
:101210002196C830D10561F7DF91CF911F910F91D1
:10122000FF90EF90089580E8809361001092610034
:101230000E9449070E94C4048DE30E94DB05279A9F
:101240002F981092800088E0809381008091810027
:1012500081608093810080916F00826080936F0035
:1012600010929900109298008091B1008160809353
:10127000B10080E29EE490939900809398008FEFF4
:101280009FEF9093BC098093BB090E9464012F9A41
:10129000CFEFDFEF80EEE82E87E0F82E0FE118EFBA
:1012A0008091B20090E00E94480B0E9472030E945D
:1012B000DA04892BE1F38091B20090E00E94480BA0
:1012C0000E947203D0938900C09388002F9878946D
:1012D0000E94E3028091DA089091DB08892BD1F714
:1012E000F8942F9A2091E0083091E1088091F0085D
:1012F0009091F1082817390758F481E495E00E948D
:10130000BD08F092BC09E092BB098AE799E002C0EF
:101310008DE795E00E94BD081093BC090093BB09BE
:1013200080E995E00E94BD08D093BC09C093BB0939
:10133000B7CF97FB072E16F4009407D077FD09D09E
:101340000E94B60907FC05D03EF4909581959F4F09
:101350000895709561957F4F0895EE0FFF1F00244B
:10136000001C0BBE0790F691E02D0994AA1BBB1B35
:1013700051E107C0AA1FBB1FA617B70710F0A61B95
:10138000B70B881F991F5A95A9F780959095BC01B6
:10139000CD0108950E94DE090C94BF0A0E94B80A8C
:1013A00058F00E94B10A40F029F45F3F29F00C94F4
:1013B000A80A51110C94F30A0C94AE0A0E94D00AA8
:1013C00068F39923B1F3552391F3951B550BBB2774
:1013D000AA2762177307840738F09F5F5F4F220FB9
:1013E000331F441FAA1FA9F335D00E2E3AF0E0E8B0
:1013F00032D091505040E695001CCAF72BD0FE2FFA
:1014000029D0660F771F881FBB1F2617370748078D
:10141000AB07B0E809F0BB0B802DBF01FF27935845
:101420005F4F3AF09E3F510578F00C94A80A0C9457
:10143000F30A5F3FE4F3983ED4F38695779567957A
:10144000B795F7959F5FC9F7880F911D969587957A
:1014500097F90895E1E0660F771F881FBB1F621799
:1014600073078407BA0720F0621B730B840BBA0B57
:10147000EE1F88F7E09508950E94D80A88F09F57DC
:1014800098F0B92F9927B751B0F0E1F0660F771FA8
:10149000881F991F1AF0BA95C9F714C0B13091F09E
:1014A0000E94F20AB1E008950C94F20A672F782F97
:1014B0008827B85F39F0B93FCCF386957795679563
:1014C000B395D9F73EF490958095709561957F4FCF
:1014D0008F4F9F4F0895E89409C097FB3EF4909575
:1014E0008095709561957F4F8F4F9F4F9923A9F0FD
:1014F000F92F96E9BB279395F6958795779567958C
:10150000B795F111F8CFFAF4BB0F11F460FF1BC0CF
:101510006F5F7F4F8F4F9F4F16C0882311F096E962
:1015200011C0772321F09EE8872F762F05C0662310
:1015300071F096E8862F70E060E02AF09A95660FC9
:10154000771F881FDAF7880F9695879597F9089582
:1015500097F99F6780E870E060E008959FEF80EC66
:10156000089500240A941616170618060906089509
:1015700000240A9412161306140605060895092E6F
:101580000394000C11F4882352F0BB0F40F4BF2BDE
:1015900011F460FF04C06F5F7F4F8F4F9F4F08951E
:1015A00057FD9058440F551F59F05F3F71F0479514
:1015B000880F97FB991F61F09F3F79F087950895F9
:1015C000121613061406551FF2CF4695F1DF08C018
:1015D000161617061806991FF1CF86957105610535
:1015E00008940895E894BB2766277727CB0197F9DD
:1015F00008958F929F92AF92BF92CF92DF92EF9217
:10160000FF92CF93DF93EC01688179818A819B817E
:10161000611571058105910521F464E279ED8BE591
:1016200097E02DE133EF41E050E00E94620B490169
:101630005A019B01AC01A7EAB1E40E94810B6B0146
:101640007C01ACEEB4EFA50194010E948F0BDC018C
:10165000CB018C0D9D1DAE1DBF1DB7FF03C00197B3
:10166000A109B04888839983AA83BB839F77DF91C0
:10167000CF91FF90EF90DF90CF90BF90AF909F9071
:101680008F9008950C94F90A81EC91E00C94F90A7A
:10169000A0E0B0E08093C1019093C201A093C30188
:1016A000B093C40108959111089581568A5108F4A8
:1016B000805285580895FB01DC0101900D920020B5
:1016C000E1F70895052E97FB1EF400940E94790B14
:1016D00057FD07D00E94940B07FC03D04EF40C94E6
:1016E000790B50954095309521953F4F4F4F5F4F67
:1016F000089590958095709561957F4F8F4F9F4F7E
:1017000008950E94B60BA59F900DB49F900DA49FC5
:10171000800D911D11240895B7FF0C94810B0E9438
:10172000810B821B930B0895A1E21A2EAA1BBB1BEF
:10173000FD010DC0AA1FBB1FEE1FFF1FA217B3079D
:10174000E407F50720F0A21BB30BE40BF50B661FB3
:10175000771F881F991F1A9469F760957095809577
:1017600090959B01AC01BD01CF010895A29FB001EE
:10177000B39FC001A39F700D811D1124911DB29FC5
:0E178000700D811D1124911D0895F894FFCF66
:10178E0023B705C305CD05D705E205ED05FB050716
:10179E000611061B06260630063A0644064E065865
:1017AE000662066C06760681068D069806A206ADC2
:1017BE0006B806C806D206DC06E606F006FC0606E5
:1017CE000710071A0725072F073D0747074D075430
:1017DE00075C07620769076F0775077D0783078B2D
:1017EE0007910797079F07A807B007B807C007C656
:1017FE0007CC07D207D907DF07E607EC07F307FC8C
:10180E000703080A08120818081F08D10526082E13
:10181E000834083A0840084808F2054F0856085D93
:10182E000866086D0873087C0883088A0890089873
:10183E00089E08A608AC08B208BB08C208CA08D1A0
:10184E0008010000004142434445464748494A4B7F
:10185E004C4D4E4F505152535455565758595A0A93
:10186E000A202020205F2020205F205F5F5F5F5FC7
:10187E00205F2020205F205F5F5F5F5F20202020A1
:10188E005F202020205F205F5F5F5F5F205F202052
:10189E00205F200A002020207C207C207C207C20C1
:1018AE00205F20207C205C207C207C20205F5F5FDE
:1018BE007C20207C205C20202F207C20205F20207C
:1018CE007C205C207C207C0A002020207C207C5FF9
:1018DE007C207C207C5F7C207C20205C7C207C20FB
:1018EE007C2020202020207C20205C2F20207C208B
:1018FE007C5F7C207C20205C7C207C0A00202020C9
:10190E007C20205F20207C20205F20207C20202037
:10191E0020207C207C205F5F2020207C2020202027
:10192E0020207C20205F20207C20202020207C0A6C
:10193E00002020207C207C207C207C207C207C2091
:10194E007C207C5C20207C207C5F7C207C20207C8A
:10195E00207C5C2F7C207C207C207C207C207C5C6E
:10196E0020207C0A002020207C5F7C207C5F7C5F16
:10197E007C207C5F7C5F7C205C5F7C5F5F5F5F5F59
:10198E007C20207C5F7C20207C5F7C5F7C207C5FC9
:10199E007C5F7C205C5F7C0A000A0A2020202020CD
:1019AE0020202020202020202020205072657373BC
:1019BE002043656E74657220746F20537461727467
:1019CE000A000A0A0A0A00202020202020202020B7
:1019DE0020202020202020202020202020202020F9
:1019EE0020202020200A002020202020202020201F
:1019FE002020202020202D2D2D2D2D2D2D2D2D2D57
:101A0E002D2D2D2D2D2D2D2D2D2D2D2D0A000A0A8E
:101A1E000A202020202020202020202020202020CE
:101A2E0020202020202020200A00202020202020DE
:101A3E002020202020202020202020202020202098
:101A4E0020202020202020207C0A000A0A0A2020A4
:101A5E002020202020202020202020202020202078
:101A6E00205F5F5F5F5F5F5F5F5F5F5F0A002020E9
:101A7E002020202020202020202020202020202058
:101A8E00207C202020202020202020207C0A0020C6
:101A9E002020202020202020202020202020202038
:101AAE00207C207C2020202020202020207C0A004A
:101ABE002020202020202020202020202020202018
:101ACE002020202D202020202020202020207C0AB5
:101ADE000020202020202020202020202020202018
:101AEE002020202F205C2020202020202020207C41
:101AFE000A0020202020202020202020202020200E
:101B0E002020202F2020205C20202020202020207C
:101B1E007C0A002020202020202020202020202091
:101B2E00202020202D2D7C2D2D2020202020202017
:101B3E00207C0A0020202020202020202020202071
:101B4E00202020206F2D2D7C2D2D6F202020202059
:101B5E0020207C0A00202020202020202020202051
:101B6E00202020206F5F2F2020205C5F6F20202000
:101B7E002020207C0A000A20202020202020202047
:101B8E002020202020202020005F000A0A0A20208A
:101B9E002020202020202020202020202020202037
:101BAE00202020202020203C003E000A0A0A416C02
:101BBE00726561647920636865636B65643A200AB7
:101BCE00000A0A20202020202047616D65204F76D4
:101BDE0065722E2E2E20596F75206B696C6C2079D4
:101BEE006F757220667269656E642E2E2E0A5468A9
:101BFE006520776F7264207761733A20000A0A437A
:101C0E006F6E67726174756C6174696F6E202100FE
:101C1E000A0A2020202020202020202020202050B2
:101C2E00726573732043656E74657220746F2052F3
:101C3E0065737461727400696E666F726D6174693A
:101C4E006F6E00617661696C61626C6500636F70C6
:101C5E0079726967687400756E69766572736974F6
:101C6E0079006D616E6167656D656E7400696E7485
:101C7E0065726E6174696F6E616C00646576656C19
:101C8E006F706D656E7400656475636174696F6EF7
:101C9E0000636F6D6D756E69747900746563686E3F
:101CAE006F6C6F677900666F6C6C6F77696E67002B
:101CBE007265736F757263657300696E636C7564BC
:101CCE00696E67006469726563746F727900696E1C
:101CDE0073706563746F7200626F6F6B6D61726BA0
:101CEE0073006D6F64656C6C696E67006D696E690B
:101CFE00617475726500696E746572737461746572
:101D0E0000636F6E73657175656E636500737973CD
:101D1E0074656D617469630070657263656976657B
:101D2E0064006D61646167617363617200707265F6
:101D3E0073656E74696E670074726F75626C65732D
:101D4E00686F6F74696E670067656E746C656D6140
:101D5E006E00726570726F6475636500636F6E7688
:101D6E00696374656400726F6F6D6D617465730085
:101D7E00746872656174656E696E670073706F6BFF
:101D8E0065736D616E006163746976697374730057
:101D9E006672616E6B6675727400656E636F7572D6
:101DAE006167657300617373656D626C6564007263
:101DBE00657374727563747572696E67007465729B
:101DCE006D696E616C7300626F6F6B730073636825
:101DDE006F6F6C007468726F756768006C696E6BFC
:101DEE007300726576696577007965617273006F4D
:101DFE0072646572007072697661637900697465E8
:101E0E006D7300636F6D70616E790067726F7570C0
:101E1E0000756E6465720067656E6572616C007246
:101E2E0065736561726368006A616E7561727900CF
:101E3E00726576696577730070726F6772616D0097
:101E4E0067616D657300636F756C640067726561C1
:101E5E007400756E6974656400686F74656C0063F8
:101E6E00656E7465720073746F726500747261765C
:101E7E00656C00636F6D6D656E7473007265706F67
:101E8E007274006D656D6265720064657461696C73
:101E9E0073007465726D73006265666F72650068BB
:101EAE006F74656C730062656361757365006C6F4A
:101EBE0063616C0074686F7365007573696E67009B
:101ECE00726573756C7473006F6666696365006422
:101EDE00657369676E00706F73746564006D697306
:101EEE0073696F6E7300776174736F6E006C7969CE
:101EFE006E6700636F7374756D65730073747269CA
:101F0E0063740073616464616D006472696C6C006B
:101F1E006F6666656E736500627279616E007072CF
:101F2E006F7465737400686F6262790074726965AC
:101F3E0073006E69636B6E616D6500696E6C696EC0
:101F4E00650077617368696E67006275696C6473AA
:081F5E00007368616674000065
:04000005008008E48B
:00000001FF
